:040000000DEF00F010
:04000800DDEF29F00F
:06001800FF0070EF28F06C
:103700000000010203040506070800400000005005
:103710000100807F7F7F7F7F7F7F7F7F7F7F7F7FB5
:103720007F7F7F7F7F7F7F7F7F7F7F7F7F7F7F7FA9
:103730007F7F7F7F7F7F7F7F7F7F7F7F7F7F7F7F99
:103740007F7F7F7F7F7F7F7F7F7F7F7F7F7F7F7F89
:103750007F7F7F7F7F7F7F7F7F7F7F7F7F7F7F7F79
:103760007F7F7F7F7F7F7F7F7F7F7F7F7F7F7F7F69
:103770007F7F7F7F7F7F7F7F7F7F7F7F7F7F7F7F59
:103780007F7F7F7F7F7F7F7F7F7F7F7F7F7F7F7F49
:103790007F7F7F7F7F7F7F7F7F7F7F7F7F7F7F7F39
:1037A0007F7F7F7F7F7F7F7F7F7F7F7F7F7F7F7F29
:1037B0007F7F7F7F7F7F7F7F7F7F7F7F7F7F7F7F19
:1037C0007F7F7F7F7F7F7F7F7F7F7F7F7F7F7F7F09
:1037D0007F7F7F7F7F7F7F7F7F7F7F7F7F7F7F7FF9
:1037E0007F7F7F7F7F7E7E7E7E7D7D7D7D7D7C7CFD
:1037F0007C7C7B7B7B7B7B7A7A7A7A7A7979797924
:103800007978787878787777777777767676767646
:103810007575757575747474747474737373737368
:103820007372727272727171717171717070707085
:1038300070706F6F6F6F6F6F6F6E6E6E6E6E6E6D9E
:103840006D6D6D6D6D6D6C6C6C6C6C6C6B6B6B6BB6
:103850006B6B6B6A6A6A6A6A6A6A696969696969CB
:1038600069696868686868686867676767676767DD
:1038700067666666666666666665656565656565EE
:1038800065646464646464646463636363636363FE
:10389000636362626262626262626161616161610C
:1038A0006161616060606060606060605F5F5F5F19
:1038B0005F5F5F5F5F5F5E5E5E5E5E5E5E5E5E5D23
:1038C0005D5D5D5D5D5D5D5D5D5C5C5C5C5C5C5C2F
:1038D0005C5C5C5B5B5B5B5B5B5B5B5B5B5B5A5A37
:1038E0005A5A5A5A5A5A5A5A5A595959595959593F
:1038F0005959595958585858585858585858585745
:10390000575757575757575757575656565656564D
:103910005656565656565555555555555555555551
:103920005555545454545454545454545454545356
:10393000535353535353535353535352525252525C
:10394000525252525252525252515151515151515E
:103950005151515151515050505050505050505061
:10396000505050504F4F4F4F4F4F4F4F4F4F4F4F63
:103970004F4F4E4E4E4E4E4E4E4E4E4E4E4E4E4E65
:103980004D4D4D4D4D4D4D4D4D4D4D4D4D4D4D4C68
:103990004C4C4C4C4C4C4C4C4C4C4C4C4C4C4C4B68
:1039A0004B4B4B4B4B4B4B4B4B4B4B4B4B4B4A4A69
:1039B0004A4A4A4A4A4A4A4A4A4A4A4A4A4A494969
:1039C0004949494949494949494949494949494868
:1039D0004848484848484848484848484848484768
:1039E0004747474747474747474747474747474767
:1039F0004746464646464646464646464646464666
:103A00004646454545454545454545454545454564
:103A10004545454545444444444444444444444461
:103A2000444444444444444343434343434343435F
:103A3000434343434343434343434242424242425C
:103A40004242424242424242424242424242414158
:103A50004141414141414141414141414141414156
:103A60004140404040404040404040404040404055
:103A70004040404040403F3F3F3F3F3F3F3F3F3F50
:103A80003F3F3F3F3F3F3F3F3F3F3F3E3E3E3E3E4B
:103A90003E3E3E3E3E3E3E3E3E3E3E3E3E3E3E3E46
:103AA0003D3D3D3D3D3D3D3D3D3D3D3D3D3D3D3D46
:103AB0003D3D3D3D3D3D3C3C3C3C3C3C3C3C3C3C40
:103AC0003C3C3C3C3C3C3C3C3C3C3C3C3B3B3B3B3A
:103AD0003B3B3B3B3B3B3B3B3B3B3B3B3B3B3B3B36
:103AE0003B3B3B3A3A3A3A3A3A3A3A3A3A3A3A3A33
:103AF0003A3A3A3A3A3A3A3A3A3A3A39393939392B
:103B00003939393939393939393939393939393925
:103B10003939393838383838383838383838383822
:103B2000383838383838383838383837373737371A
:103B30003737373737373737373737373737373715
:103B40003737373736363636363636363636363611
:103B50003636363636363636363636363636353507
:103B60003535353535353535353535353535353505
:103B700035353535353535353434343434343434FD
:103B800034343434343434343434343434343434F5
:103B900034343333333333333333333333333333F3
:103BA00033333333333333333333333333333232E7
:103BB00032323232323232323232323232323232E5
:103BC00032323232323232323231313131313131DC
:103BD00031313131313131313131313131313131D5
:103BE00031313131313130303030303030303030CF
:103BF00030303030303030303030303030303030C5
:103C00003030302F2F2F2F2F2F2F2F2F2F2F2F2FC1
:103C10002F2F2F2F2F2F2F2F2F2F2F2F2F2F2F2FB4
:103C20002E2E2E2E2E2E2E2E2E2E2E2E2E2E2E2EB4
:103C30002E2E2E2E2E2E2E2E2E2E2E2E2E2E2D2DA6
:103C40002D2D2D2D2D2D2D2D2D2D2D2D2D2D2D2DA4
:103C50002D2D2D2D2D2D2D2D2D2D2D2D2C2C2C2C98
:103C60002C2C2C2C2C2C2C2C2C2C2C2C2C2C2C2C94
:103C70002C2C2C2C2C2C2C2C2C2C2C2B2B2B2B2B89
:103C80002B2B2B2B2B2B2B2B2B2B2B2B2B2B2B2B84
:103C90002B2B2B2B2B2B2B2B2B2B2B2A2A2A2A2A79
:103CA0002A2A2A2A2A2A2A2A2A2A2A2A2A2A2A2A74
:103CB0002A2A2A2A2A2A2A2A2A2A2A292929292969
:103CC0002929292929292929292929292929292964
:103CD0002929292929292929292929292828282858
:103CE0002828282828282828282828282828282854
:103CF0002828282828282828282828282827272747
:103D00002727272727272727272727272727272743
:103D10002727272727272727272727272727272634
:103D20002626262626262626262626262626262633
:103D30002626262626262626262626262626262623
:103D40002625252525252525252525252525252522
:103D50002525252525252525252525252525252513
:103D6000252525252424242424242424242424240F
:103D70002424242424242424242424242424242403
:103D800024242424242424232323232323232323FC
:103D900023232323232323232323232323232323F3
:103DA00023232323232323232323232222222222E8
:103DB00022222222222222222222222222222222E3
:103DC00022222222222222222222222222222221D4
:103DD00021212121212121212121212121212121D3
:103DE00021212121212121212121212121212121C3
:103DF00021212120202020202020202020202020C0
:103E000020202020202020202020202020202020B2
:103E100020202020202020201F1F1F1F1F1F1F1FAA
:103E20001F1F1F1F1F1F1F1F1F1F1F1F1F1F1F1FA2
:103E30001F1F1F1F1F1F1F1F1F1F1F1F1F1F1E1E94
:103E40001E1E1E1E1E1E1E1E1E1E1E1E1E1E1E1E92
:103E50001E1E1E1E1E1E1E1E1E1E1E1E1E1E1E1E82
:103E60001E1E1E1E1D1D1D1D1D1D1D1D1D1D1D1D7E
:103E70001D1D1D1D1D1D1D1D1D1D1D1D1D1D1D1D72
:103E80001D1D1D1D1D1D1D1D1D1D1C1C1C1C1C1C68
:103E90001C1C1C1C1C1C1C1C1C1C1C1C1C1C1C1C62
:103EA0001C1C1C1C1C1C1C1C1C1C1C1C1C1C1C1C52
:103EB0001C1B1B1B1B1B1B1B1B1B1B1B1B1B1B1B51
:103EC0001B1B1B1B1B1B1B1B1B1B1B1B1B1B1B1B42
:103ED0001B1B1B1B1B1B1B1B1A1A1A1A1A1A1A1A3A
:103EE0001A1A1A1A1A1A1A1A1A1A1A1A1A1A1A1A32
:103EF0001A1A1A1A1A1A1A1A1A1A1A1A1A1A1A1923
:103F00001919191919191919191919191919191921
:103F10001919191919191919191919191919191911
:103F2000191919191919181818181818181818180B
:103F30001818181818181818181818181818181801
:103F400018181818181818181818181818181717F3
:103F500017171717171717171717171717171717F1
:103F600017171717171717171717171717171717E1
:103F700017171717171716161616161616161616DB
:103F800016161616161616161616161616161616D1
:103F900016161616161616161616161616161515C3
:103FA00015151515151515151515151515151515C1
:103FB00015151515151515151515151515151515B1
:103FC00015151515151515141414141414141414AA
:103FD00014141414141414141414141414141414A1
:103FE0001414141414141414141414141414141392
:103FF0001313131313131313131313131313131391
:104000001313131313131313131313131313131380
:104010001313131313131313121212121212121278
:104020001212121212121212121212121212121270
:104030001212121212121212121212121212121260
:104040001111111111111111111111111111111160
:104050001111111111111111111111111111111150
:104060001111111111111111111010101010101047
:104070001010101010101010101010101010101040
:104080001010101010101010101010101010101030
:1040900010100F0F0F0F0F0F0F0F0F0F0F0F0F0F2E
:1040A0000F0F0F0F0F0F0F0F0F0F0F0F0F0F0F0F20
:1040B0000F0F0F0F0F0F0F0F0F0F0E0E0E0E0E0E16
:1040C0000E0E0E0E0E0E0E0E0E0E0E0E0E0E0E0E10
:1040D0000E0E0E0E0E0E0E0E0E0E0E0E0E0E0E0E00
:1040E0000E0E0E0D0D0D0D0D0D0D0D0D0D0D0D0DFD
:1040F0000D0D0D0D0D0D0D0D0D0D0D0D0D0D0D0DF0
:104100000D0D0D0D0D0D0D0D0D0D0D0C0C0C0C0CE4
:104110000C0C0C0C0C0C0C0C0C0C0C0C0C0C0C0CDF
:104120000C0C0C0C0C0C0C0C0C0C0C0C0C0C0C0CCF
:104130000C0C0C0C0B0B0B0B0B0B0B0B0B0B0B0BCB
:104140000B0B0B0B0B0B0B0B0B0B0B0B0B0B0B0BBF
:104150000B0B0B0B0B0B0B0B0B0B0B0B0A0A0A0AB3
:104160000A0A0A0A0A0A0A0A0A0A0A0A0A0A0A0AAF
:104170000A0A0A0A0A0A0A0A0A0A0A0A0A0A0A0A9F
:104180000A0A0A0A0909090909090909090909099B
:10419000090909090909090909090909090909098F
:1041A0000909090909090909090909090808080883
:1041B000080808080808080808080808080808087F
:1041C000080808080808080808080808080808086F
:1041D000080808070707070707070707070707076C
:1041E000070707070707070707070707070707075F
:1041F0000707070707070707070706060606060655
:10420000060606060606060606060606060606064E
:10421000060606060606060606060606060606063E
:10422000060505050505050505050505050505053D
:10423000050505050505050505050505050505052E
:104240000505050505050505040404040404040426
:10425000040404040404040404040404040404041E
:104260000404040404040404040404040404030310
:10427000030303030303030303030303030303030E
:1042800003030303030303030303030303030303FE
:1042900003030302020202020202020202020202FB
:1042A00002020202020202020202020202020202EE
:1042B00002020202020202020201010101010101E5
:1042C00001010101010101010101010101010101DE
:1042D00001010101010101010101010101000000D1
:1042E00000000000000000000000000000000000CE
:1042F00000000000000000000000000000000000BE
:1043000000FFFFFFFFFFFFFFFFFFFFFFFFFFFFFFBC
:10431000FFFFFFFFFFFFFFFFFFFFFFFFFFFFFFFFAD
:10432000FFFFFFFFFFFEFEFEFEFEFEFEFEFEFEFEA8
:10433000FEFEFEFEFEFEFEFEFEFEFEFEFEFEFEFE9D
:10434000FEFEFEFEFEFEFEFEFDFDFDFDFDFDFDFD95
:10435000FDFDFDFDFDFDFDFDFDFDFDFDFDFDFDFD8D
:10436000FDFDFDFDFDFDFDFDFDFDFCFCFCFCFCFC83
:10437000FCFCFCFCFCFCFCFCFCFCFCFCFCFCFCFC7D
:10438000FCFCFCFCFCFCFCFCFCFCFCFCFBFBFBFB71
:10439000FBFBFBFBFBFBFBFBFBFBFBFBFBFBFBFB6D
:1043A000FBFBFBFBFBFBFBFBFBFBFBFBFBFAFAFA60
:1043B000FAFAFAFAFAFAFAFAFAFAFAFAFAFAFAFA5D
:1043C000FAFAFAFAFAFAFAFAFAFAFAFAFAFAF9F94F
:1043D000F9F9F9F9F9F9F9F9F9F9F9F9F9F9F9F94D
:1043E000F9F9F9F9F9F9F9F9F9F9F9F9F9F9F8F83F
:1043F000F8F8F8F8F8F8F8F8F8F8F8F8F8F8F8F83D
:10440000F8F8F8F8F8F8F8F8F8F8F8F8F8F7F7F72F
:10441000F7F7F7F7F7F7F7F7F7F7F7F7F7F7F7F72C
:10442000F7F7F7F7F7F7F7F7F7F7F7F6F6F6F6F621
:10443000F6F6F6F6F6F6F6F6F6F6F6F6F6F6F6F61C
:10444000F6F6F6F6F6F6F6F6F6F5F5F5F5F5F5F513
:10445000F5F5F5F5F5F5F5F5F5F5F5F5F5F5F5F50C
:10446000F5F5F5F5F5F5F4F4F4F4F4F4F4F4F4F406
:10447000F4F4F4F4F4F4F4F4F4F4F4F4F4F4F4F4FC
:10448000F4F4F3F3F3F3F3F3F3F3F3F3F3F3F3F3FA
:10449000F3F3F3F3F3F3F3F3F3F3F3F3F3F3F2F2EE
:1044A000F2F2F2F2F2F2F2F2F2F2F2F2F2F2F2F2EC
:1044B000F2F2F2F2F2F2F2F2F1F1F1F1F1F1F1F1E4
:1044C000F1F1F1F1F1F1F1F1F1F1F1F1F1F1F1F1DC
:1044D000F1F1F0F0F0F0F0F0F0F0F0F0F0F0F0F0DA
:1044E000F0F0F0F0F0F0F0F0F0F0F0F0EFEFEFEFD0
:1044F000EFEFEFEFEFEFEFEFEFEFEFEFEFEFEFEFCC
:10450000EFEFEFEFEEEEEEEEEEEEEEEEEEEEEEEEC7
:10451000EEEEEEEEEEEEEEEEEEEEEEEEEDEDEDEDBF
:10452000EDEDEDEDEDEDEDEDEDEDEDEDEDEDEDEDBB
:10453000EDEDEDECECECECECECECECECECECECECB8
:10454000ECECECECECECECECECEBEBEBEBEBEBEBB2
:10455000EBEBEBEBEBEBEBEBEBEBEBEBEBEBEBEAAC
:10456000EAEAEAEAEAEAEAEAEAEAEAEAEAEAEAEAAB
:10457000EAEAEAEAE9E9E9E9E9E9E9E9E9E9E9E9A7
:10458000E9E9E9E9E9E9E9E9E8E8E8E8E8E8E8E8A3
:10459000E8E8E8E8E8E8E8E8E8E8E8E7E7E7E7E7A0
:1045A000E7E7E7E7E7E7E7E7E7E7E7E7E7E7E6E69D
:1045B000E6E6E6E6E6E6E6E6E6E6E6E6E6E6E6E59C
:1045C000E5E5E5E5E5E5E5E5E5E5E5E5E5E5E5E59B
:1045D000E5E4E4E4E4E4E4E4E4E4E4E4E4E4E4E49A
:1045E000E4E3E3E3E3E3E3E3E3E3E3E3E3E3E3E39A
:1045F000E3E2E2E2E2E2E2E2E2E2E2E2E2E2E2E29A
:10460000E1E1E1E1E1E1E1E1E1E1E1E1E1E1E1E09B
:10461000E0E0E0E0E0E0E0E0E0E0E0E0E0DFDFDF9D
:10462000DFDFDFDFDFDFDFDFDFDFDEDEDEDEDEDEA0
:10463000DEDEDEDEDEDEDEDDDDDDDDDDDDDDDDDDA3
:10464000DDDDDDDDDCDCDCDCDCDCDCDCDCDCDCDBA7
:10465000DBDBDBDBDBDBDBDBDBDBDADADADADADAB0
:10466000DADADADADAD9D9D9D9D9D9D9D9D9D9D8B6
:10467000D8D8D8D8D8D8D8D8D8D7D7D7D7D7D7D7C1
:10468000D7D7D6D6D6D6D6D6D6D6D6D5D5D5D5D5CD
:10469000D5D5D5D4D4D4D4D4D4D4D4D3D3D3D3D3DC
:1046A000D3D3D2D2D2D2D2D2D2D1D1D1D1D1D1D1EF
:1046B000D0D0D0D0D0D0CFCFCFCFCFCFCECECECE08
:1046C000CECECDCDCDCDCDCCCCCCCCCCCBCBCBCB25
:1046D000CBCACACACACAC9C9C9C9C8C8C8C8C7C74B
:1046E000C7C6C6C6C6C5C5C5C4C4C4C3C3C3C2C283
:1046F000C2C1C1C0C0C0BFBFBEBEBDBDBCBCBBBAD5
:10470000BAB9B8B8B7B6B5B4B3B2B0AFADABA9A685
:10471000A29C35C5D9F436C5DAF4DEC43AF5DEC458
:104720003BF5DEC43CF5DEC43DF520EE04F035502B
:10473000D9263650DA22DFA0A0EF23F0A2EF23F033
:10474000DBEF23F020EE01F03350D9263450DA228B
:104750003A38E842F80BF80BDF6E050E376ED8904A
:104760003D323C323B323A32372EAFEF23F020EE6F
:1047700002F03350D9263450DA223AC5DFF43BC573
:104780003AF53CC53BF53DC53CF53D6A20EE03F0EE
:104790003350D9263450DA223A501F0BDF6E050E03
:1047A000376ED8903D323C323B323A32372ED1EF21
:1047B00023F0F2EF23F020EE03F03350D9263450EB
:1047C000DA22DF6A10EE02F03350E1263450E222A2
:1047D000DFC4E7F420EE01F03350D9263450DA225A
:1047E000E7C4DFF433C5D9F434C5DAF43AC5DFF4ED
:1047F0003BC53AF53CC53BF53DC53CF53D6A3AC580
:1048000037F5070E371620EE01F03350D926345015
:10481000DA223750DF1220EE04F03550D926365018
:10482000DA22DF30E8320F0B396E20EE04F035501B
:10483000D9263650DA22DFB020EF24F024EF24F01E
:10484000376A372A25EF24F0376A3738F00B3912E8
:1048500020EE04F03550D9263650DA22DFB233EF9D
:1048600024F037EF24F0200E376E38EF24F0376A4B
:104870003750391220EE04F03550D9263650DA225E
:10488000DFBE45EF24F049EF24F0400E376E4AEFCB
:1048900024F0376A3750391220EE04F03550D9260B
:1048A0003650DA22DFBC57EF24F05BEF24F0800EA5
:1048B000376E5CEF24F0376A3750391220EE04F07F
:1048C0003350D9263450DA2239C5DFF420EE04F013
:1048D0003550D9263650DA22DFB271EF24F073EF6B
:1048E00024F09CEF24F0080E3324286E000E3420B0
:1048F000296E20EE05F03550D9263650DA22DEC476
:104900002AF5DDC42BF520EE04F03550D9263650BB
:10491000DA22DF30E8320F0B376E3750010F386E76
:1049200038C5F6F4370EF76E000EF86E0800F55035
:104930002C6E2D6A70EC29F0120030EC2AF0000E7B
:10494000E4EC2AF0D1BAA7EF24F0ABEF24F0446AEC
:10495000442AACEF24F0446AD1BCB1EF24F0B4EFA8
:1049600024F0010EB5EF24F0000EFE0D4450F35C70
:10497000030F1B6E010E0501656F4F0E6525D96E85
:10498000DA6A050EDA22DF50CDEC2AF066EC2AF066
:104990000009D8B4CEEF24F0D0EF24F0C6EF24F015
:1049A00071EC2AF028C560F529C561F560C528F5C8
:1049B00061C529F586EC2AF0446E230E05016525B4
:1049C000D96EDA6A050EDA2244C5DFF4652B020ED1
:1049D0006565EDEF24F0EFEF24F0BDEF24F0010E5C
:1049E000666F780E6625D96EDA6A050EDA22DF5018
:1049F000CDEC2AF066EC2AF00009D8B402EF25F0DD
:104A000004EF25F0FAEF24F071EC2AF028C562F5E6
:104A100029C563F56D0E05016625D96EDA6A050EA6
:104A2000DA2262C5DFF4662B0A0E66651AEF25F0FE
:104A30001CEF25F0F1EF24F083EF25F0060EB4EC27
:104A400028F099EF25F0000E0AEC2AF0E806D8A429
:104A50002CEF25F02EEF25F099EF25F0000E050143
:104A6000646F6E0E286E050E296E1BC52AF564C58F
:104A70002BF5A8EC25F021EE67F1060EEBC4DBF474
:104A8000E806FCE2670E3E6E050E3F6E000E28EC57
:104A900028F0000E0AEC2AF00009D8B452EF25F0F5
:104AA00054EF25F049EF25F00501642B010E6465F4
:104AB0005CEF25F05EEF25F031EF25F0240E286E37
:104AC000050E296E1BC52AF5020E2B6EF8EC28F098
:104AD00021EE67F1060EEBC4DBF4E806FCE2670E9C
:104AE0003E6E050E3F6E000E28EC28F0000E0AEC1C
:104AF0002AF00009D8B47FEF25F081EF25F076EF9A
:104B000025F099EF25F0DFEC2AF0446E456A455018
:104B1000000AD8B48EEF25F099EF25F04450040A2E
:104B2000D8B41EEF25F0020AD8B423EF25F099EF90
:104B300025F0030E456E8A0E446E560EE82EFED703
:104B4000442EFCD7452EFAD7BAEF24F00DEF00F033
:104B50002B500F0B1C122B50050DF3C42FF5F4C472
:104B600030F52F502824D96E30502920DA6EDF50CE
:104B7000316E0F0E31163138F00B1C122B50050D13
:104B8000F3C42FF5F4C430F52F502824D96E3050DB
:104B90002920DA6EDF50316E31380F0B1D122B5089
:104BA000050DF3C42FF5F4C430F52F502824316ED1
:104BB00030502920326E010E3124D96E000E322081
:104BC000DA6EDF501E122B50050DF3C42FF5F4C41E
:104BD00030F52F502824316E30502920326E020ECD
:104BE0003124D96E000E3220DA6EDF50336E0F0E94
:104BF00033163338F00B1F122B50050DF3C42FF56D
:104C0000F4C430F52F502824316E30502920326EF4
:104C1000020E3124D96E000E3220DA6EDF50336E70
:104C200033380F0B20122B50050DF3C42FF5F4C4AD
:104C300030F52F502824316E30502920326E030E6B
:104C40003124D96E000E3220DA6EDF5021122B5043
:104C5000050DF3C42FF5F4C430F52F502824316E20
:104C600030502920326E040E3124D96E000E3220CD
:104C7000DA6EDF50336E33380F0B0F0B22122B50CE
:104C8000050DF3C42FF5F4C430F52F502824316EF0
:104C900030502920326E040E3124D96E000E32209D
:104CA000DA6EDF5023122B502AC52FF5306A2F26DB
:104CB000000E3022000E2F24316E060E3020326E90
:104CC00031C534F532C535F5000E35BEFF0E366EF2
:104CD000376E389C389E3850C30B2009386E389296
:104CE00038801C0E396E050E3A6E21EE34F101EE5D
:104CF00028F1060EDBC4EBF4E806FCE21200010129
:104D00001DAF85EF26F087EF26F096EF26F002D84C
:104D100094EF26F00500FA6E1850FD6E1950FE6EE5
:104D20001A50FF6EFA50120001011D9F1DAD9BEF3E
:104D300026F09DEF26F0ACEF26F002D8AAEF26F081
:104D40000500FA6E1550FD6E1650FE6E1750FF6E80
:104D5000FA50120001011D9D1DABB1EF26F0B3EF1B
:104D600026F0C2EF26F002D8C0EF26F00500FA6E5A
:104D70001250FD6E1350FE6E1450FF6EFA5012006A
:104D800001011D9B1CA7C7EF26F0C9EF26F0D8EF45
:104D900026F002D8D6EF26F00500FA6E0F50FD6E11
:104DA0001050FE6E1150FF6EFA50120001011C9758
:104DB0001DA9DDEF26F0DFEF26F0EEEF26F002D89A
:104DC000ECEF26F00500FA6E0C50FD6E0D50FE6EF5
:104DD0000E50FF6EFA50120001011D991DA5F3EF50
:104DE00026F0F5EF26F013EF27F002D802EF27F0B8
:104DF0000500FA6E0950FD6E0A50FE6E0B50FF6EF4
:104E0000FA501200010154A908EF27F00AEF27F029
:104E10000BEF27F0549960A910EF27F012EF27F05D
:104E200013EF27F06099AE9C12002E6E000E2F6ECD
:104E300020EE04F02950D9262A50DA22DF50306EB5
:104E400030AE25EF27F027EF27F032EF27F0DFEC29
:104E50002AF0060AD8A42FEF27F031EF27F032EF1F
:104E600027F02F823030E8320F0B2B6E080E2B64A8
:104E70003CEF27F03EEF27F050EF27F030AC43EF48
:104E800027F045EF27F04FEF27F0DFEC2AF0060A76
:104E9000D8A44DEF27F04FEF27F050EF27F02F80E9
:104EA000090EF66E370EF76E000EF86E0800F5C4A8
:104EB0002BF53030E8320F0B2C6E2C50010F2D6E7D
:104EC0002DC5F6F4370EF76E000EF86E0800F5509B
:104ED0002B5CD8B06EEF27F070EF27F071EF27F062
:104EE0002F802E505AEC2AF00009D8A47AEF27F030
:104EF0007CEF27F07EEF27F0030E2F122F501200C9
:104F0000000E0301F96F000EFA6F000ED86F000E4D
:104F1000FB6F000ED96F000EDA6F000EDB6F000E14
:104F2000DC6F000EDF6F000EE06F000EE36F000E0F
:104F3000E46F000EE56F000EE66F000EE76F000EE7
:104F4000EA6F000EEB6F020EEC6F000EEE6F000EBC
:104F5000EF6F000EF06F000EF16F000EF26F000E9B
:104F6000F36F000EF46F100EF56F000EF66F000E6B
:104F7000F76F000EF86F000EFC6FAF94AF96B09015
:104F8000000E286E000E296E000E2A6EC6EC2AF066
:104F9000000E286E000E296E000E2A6EB8EC2AF064
:104FA000000E286E000E296E000E2A6EBFEC2AF04D
:104FB000840E0301F36F1200000EC26E000EC16E6C
:104FC000200EBE6E000EBF6E000EC06E070ECA6EC3
:104FD000DF0EC66EDF0EC76ED60EC86EFD0EC96E32
:104FE0009C0E0401186FE70E106F0869070E206F02
:104FF000EF0E006F3C0E196F000E216F000E096F4F
:10500000000E016F000E116F000E226F000E026F76
:10501000000E0A6F080E126F000E1A6F03690B69FB
:1050200013691B69070E236F04690C6914691C69F5
:105030000F0E246F130E02016A6F310E146F180EDB
:105040003D6F460E1A6F320E166F140E6B6F120004
:10505000436E4350BEEC29F00009D8B432EF28F07B
:1050600034EF28F06FEF28F03EC529F53FC52AF54B
:10507000435015EC27F0406E4050D8A442EF28F082
:1050800044EF28F06FEF28F043500C0D580EF32436
:10509000D96E010EF420DA6EDEC441F5DDC442F5AE
:1050A00041504210D8B457EF28F059EF28F06FEF75
:1050B00028F041C533F542C534F53EC535F53FC549
:1050C00036F589EC23F043500C0D510EF324D96EC4
:1050D000010EF420DA6E030EDF126FEF28F01200DB
:1050E000120EF66E370EF76E000EF86E01EE82F1BC
:1050F00014EE00F00900F5C4EEF4E550E150FAE1D9
:10510000E250F8E1B40EF66E550EF76E000EF86E32
:1051100001EE78F110EE0AF00900F5C4EEF4E55066
:10512000E150FAE1D40EF66E550EF76E000EF86EF1
:105130000900F5C44FF50900F5C450F501EE6EF114
:105140000A0EEE6AE806FDE101EE01F1250EEE6AB7
:10515000E806FDE10401080E5D6F000E5E6F000EB3
:105160005F6F00019DEF24F02A6E000E296EDFECC8
:105170002AF0286E040E2818D8B4C1EF28F0C3EF27
:1051800028F0D4EF28F02A04D8B4C9EF28F0CBEFE8
:1051900028F0D4EF28F0040E2A18D8A4D2EF28F073
:1051A000D4EF28F0F4EF28F0010103512A18F80B8E
:1051B0002A18036FE7EF28F01DA9E1EF28F0E3EFCD
:1051C00028F0E7EF28F0020E296EF6EF28F00239FA
:1051D000E832070B2A18D8A4F0EF28F0F2EF28F0F5
:1051E000DCEF28F0F6EF28F0010E296E29501200AE
:1051F0002BC501F528C5D9F429C5DAF4DF50026EB4
:1052000020EE01F02850D9262950DA22DF50036E13
:105210002B502AC52FF5306A2F26000E3022000EA3
:105220002F24316E060E3020326E31C533F532C573
:1052300034F5000E34BEFF0E356E366E379C379E49
:105240003750C30B2009376E379237801C0E386EEB
:10525000050E396E21EE33F101EE28F1060EDBC4A6
:10526000EBF4E806FCE21200DC0E286E550E296E07
:10527000000E2A6EA3EC2AF0DE0E286E550E296E63
:10528000000E2A6EAAEC2AF0E00E286E550E296E4A
:10529000000E2A6EB1EC2AF0DA0E286E550E296E39
:1052A000000E2A6E9CEC2AF0D80E286E550E296E40
:1052B000000E2A6E95EC2AF0D60E286E550E296E39
:1052C000000E2A6E8EEC2AF0AE9C000E01011C6FBF
:1052D000000E1D6F080E1E6FFC0E1F6F9E8C1200BD
:1052E0002AC531F52BC532F528C52FF529C530F56E
:1052F0008AEF29F031C5D9F432C5DAF4DF502E6EC9
:10530000314A322A2FC5D9F430C5DAF42EC5DFF47C
:105310002F4A302A2C06D8A02D062C2806E12D284D
:10532000D8A495EF29F097EF29F07AEF29F0120031
:105330000101018F040EB4EC28F00009D8A4A3EFFA
:1053400029F0A5EF29F0BDEF29F0000E01014C6F07
:10535000380E4D6F000E4E6F000E4F6F600E006FD7
:10536000970E016F100E026F7CEC2AF01EEC2AF0F3
:1053700034EC29F0060EB4EC28F01200296E000E71
:10538000286E040E2960C7EF29F0C9EF29F0DBEF82
:1053900029F029500C0D500EF324D96E010EF42083
:1053A000DA6E0101DFAED7EF29F0D9EF29F0DBEF9C
:1053B00029F0010E286E28501200FAC426F5FBC40D
:1053C00027F59EACE6EF29F0E8EF29F0F1EF29F0A0
:1053D000AEACEDEF29F0EFEF29F0F1EF29F07FEC23
:1053E00026F027C5FBF426C5FAF41100000E0001D3
:1053F000606F000E616F000E626F000E636F000E33
:10540000646F000E656F000E666F000E676F000E12
:10541000686F12002B6E000E2A6E2B50BEEC29F026
:105420000009D8B416EF2AF018EF2AF01CEF2AF082
:105430002B505AEC2AF02A6E2A501200100E01014D
:10544000506F040E516F600E526F010E536F900E2D
:105450005C6F040E5D6F600E5E6F050E5F6F120075
:10546000E8EC2AF0F6EC29F080EC27F0DCEC27F0F1
:105470004EEC2AF041EC2AF0D4EC2AF098EC29F01A
:105480001200000E0001846F400E856F000E866FC3
:10549000000E8C6F000E896FC8961200700E00010E
:1054A000AD6F000EAF6F000EB36F040EB16F000E44
:1054B000B06F1200286E28500C0D540EF324D96ED4
:1054C000010EF420DA6EDF50010B12000301F3A18C
:1054D0006CEF2AF06FEF2AF0010E70EF2AF0000E49
:1054E00012000301EB512B6E2A6AEA512A24286E1E
:1054F000000E2B20296E1200070E0101046F070E0B
:10550000056F1E0E066F000E076F1200820E282414
:10551000D96E050E2920DA6EDF50120028C509F574
:1055200029C50AF52AC50BF5120028C50CF529C5B1
:105530000DF52AC50EF5120028C50FF529C510F581
:105540002AC511F5120028C518F529C519F52AC56F
:105550001AF5120028C515F529C516F52AC517F53F
:10556000120028C512F529C513F52AC514F5120035
:1055700028C549F529C54AF52AC54BF5120028C5A5
:1055800046F529C547F52AC548F5120028C54CF54A
:1055900029C54DF52AC54EF51200286E28C5ECF335
:1055A0000301F38FF3811200000E00013A6F900E99
:1055B000396F1200090A0B0C01020311121F0101BD
:1055C0000239E832070B1200286E28C5FBF31200DF
:1055D000D69A1200171C12001200120012001200BC
:0255E0001200B7
:020000040030CA
:10000000FAEFF7FF9FFFFFFFFFFFFFFFFFFFFFFF7D
:03001000FFFFFFF0
:08001700FFFFFFFFFFFFFFFFE9
:00000001FF
