:040000000DEF00F010
:04000800CCEF2BF01E
:06001800FF0007EF2BF0D2
:0D3700000000010203040506070850010047
:10370E00807F7F7F7F7F7F7F7F7F7F7F7F7F7F7FBA
:10371E007F7F7F7F7F7F7F7F7F7F7F7F7F7F7F7FAB
:10372E007F7F7F7F7F7F7F7F7F7F7F7F7F7F7F7F9B
:10373E007F7F7F7F7F7F7F7F7F7F7F7F7F7F7F7F8B
:10374E007F7F7F7F7F7F7F7F7F7F7F7F7F7F7F7F7B
:10375E007F7F7F7F7F7F7F7F7F7F7F7F7F7F7F7F6B
:10376E007F7F7F7F7F7F7F7F7F7F7F7F7F7F7F7F5B
:10377E007F7F7F7F7F7F7F7F7F7F7F7F7F7F7F7F4B
:10378E007F7F7F7F7F7F7F7F7F7F7F7F7F7F7F7F3B
:10379E007F7F7F7F7F7F7F7F7F7F7F7F7F7F7F7F2B
:1037AE007F7F7F7F7F7F7F7F7F7F7F7F7F7F7F7F1B
:1037BE007F7F7F7F7F7F7F7F7F7F7F7F7F7F7F7F0B
:1037CE007F7F7F7F7F7F7F7F7F7F7F7F7F7F7F7FFB
:1037DE007F7F7F7E7E7E7E7D7D7D7D7D7C7C7C7C05
:1037EE007B7B7B7B7B7A7A7A7A7A7979797979782D
:1037FE007878787877777777777676767676757550
:10380E00757575747474747474737373737373726F
:10381E00727272727171717171717070707070708C
:10382E006F6F6F6F6F6F6F6E6E6E6E6E6E6D6D6DA6
:10383E006D6D6D6D6C6C6C6C6C6C6B6B6B6B6B6BBC
:10384E006B6A6A6A6A6A6A6A6969696969696969D1
:10385E0068686868686868676767676767676766E4
:10386E0066666666666666656565656565656564F4
:10387E006464646464646463636363636363636303
:10388E006262626262626262616161616161616112
:10389E00616060606060606060605F5F5F5F5F5F1F
:1038AE005F5F5F5F5E5E5E5E5E5E5E5E5E5D5D5D29
:1038BE005D5D5D5D5D5D5D5C5C5C5C5C5C5C5C5C33
:1038CE005C5B5B5B5B5B5B5B5B5B5B5B5A5A5A5A3D
:1038DE005A5A5A5A5A5A5A59595959595959595943
:1038EE00595958585858585858585858585757574B
:1038FE005757575757575757565656565656565652
:10390E005656565655555555555555555555555555
:10391E00545454545454545454545454545353535C
:10392E005353535353535353535252525252525260
:10393E005252525252525251515151515151515162
:10394E005151515150505050505050505050505065
:10395E0050504F4F4F4F4F4F4F4F4F4F4F4F4F4F67
:10396E004E4E4E4E4E4E4E4E4E4E4E4E4E4E4D4D6B
:10397E004D4D4D4D4D4D4D4D4D4D4D4D4D4C4C4C6C
:10398E004C4C4C4C4C4C4C4C4C4C4C4C4C4B4B4B6C
:10399E004B4B4B4B4B4B4B4B4B4B4B4B4A4A4A4A6D
:1039AE004A4A4A4A4A4A4A4A4A4A4A4A494949496D
:1039BE00494949494949494949494949494848486C
:1039CE00484848484848484848484848484747476C
:1039DE00474747474747474747474747474747466A
:1039EE004646464646464646464646464646464669
:1039FE004545454545454545454545454545454569
:103A0E004545454444444444444444444444444465
:103A1E004444444444434343434343434343434363
:103A2E004343434343434343424242424242424260
:103A3E00424242424242424242424242414141415C
:103A4E004141414141414141414141414141414059
:103A5E004040404040404040404040404040404058
:103A6E00404040403F3F3F3F3F3F3F3F3F3F3F3F54
:103A7E003F3F3F3F3F3F3F3F3F3E3E3E3E3E3E3E4F
:103A8E003E3E3E3E3E3E3E3E3E3E3E3E3E3E3D3D4A
:103A9E003D3D3D3D3D3D3D3D3D3D3D3D3D3D3D3D48
:103AAE003D3D3D3D3C3C3C3C3C3C3C3C3C3C3C3C44
:103ABE003C3C3C3C3C3C3C3C3C3C3B3B3B3B3B3B3E
:103ACE003B3B3B3B3B3B3B3B3B3B3B3B3B3B3B3B38
:103ADE003B3A3A3A3A3A3A3A3A3A3A3A3A3A3A3A37
:103AEE003A3A3A3A3A3A3A3A3A393939393939392F
:103AFE003939393939393939393939393939393928
:103B0E003938383838383838383838383838383826
:103B1E00383838383838383838373737373737371E
:103B2E003737373737373737373737373737373717
:103B3E003737363636363636363636363636363615
:103B4E00363636363636363636363636353535350B
:103B5E003535353535353535353535353535353507
:103B6E003535353535353434343434343434343401
:103B7E0034343434343434343434343434343434F7
:103B8E0033333333333333333333333333333333F7
:103B9E0033333333333333333333333332323232EB
:103BAE0032323232323232323232323232323232E7
:103BBE0032323232323232313131313131313131E0
:103BCE0031313131313131313131313131313131D7
:103BDE0031313131303030303030303030303030D3
:103BEE0030303030303030303030303030303030C7
:103BFE00302F2F2F2F2F2F2F2F2F2F2F2F2F2F2FC6
:103C0E002F2F2F2F2F2F2F2F2F2F2F2F2F2F2E2EB8
:103C1E002E2E2E2E2E2E2E2E2E2E2E2E2E2E2E2EB6
:103C2E002E2E2E2E2E2E2E2E2E2E2E2E2D2D2D2DAA
:103C3E002D2D2D2D2D2D2D2D2D2D2D2D2D2D2D2DA6
:103C4E002D2D2D2D2D2D2D2D2D2D2C2C2C2C2C2C9C
:103C5E002C2C2C2C2C2C2C2C2C2C2C2C2C2C2C2C96
:103C6E002C2C2C2C2C2C2C2C2C2B2B2B2B2B2B2B8D
:103C7E002B2B2B2B2B2B2B2B2B2B2B2B2B2B2B2B86
:103C8E002B2B2B2B2B2B2B2B2B2A2A2A2A2A2A2A7D
:103C9E002A2A2A2A2A2A2A2A2A2A2A2A2A2A2A2A76
:103CAE002A2A2A2A2A2A2A2A2A292929292929296D
:103CBE002929292929292929292929292929292966
:103CCE00292929292929292929292828282828285C
:103CDE002828282828282828282828282828282856
:103CEE00282828282828282828282827272727274B
:103CFE002727272727272727272727272727272746
:103D0E002727272727272727272727272726262638
:103D1E002626262626262626262626262626262635
:103D2E002626262626262626262626262626262526
:103D3E002525252525252525252525252525252525
:103D4E002525252525252525252525252525252515
:103D5E002525242424242424242424242424242413
:103D6E002424242424242424242424242424242405
:103D7E002424242424232323232323232323232300
:103D8E0023232323232323232323232323232323F5
:103D9E0023232323232323232322222222222222EC
:103DAE0022222222222222222222222222222222E5
:103DBE0022222222222222222222222222212121D8
:103DCE0021212121212121212121212121212121D5
:103DDE0021212121212121212121212121212121C5
:103DEE0021202020202020202020202020202020C4
:103DFE0020202020202020202020202020202020B5
:103E0E002020202020201F1F1F1F1F1F1F1F1F1FAE
:103E1E001F1F1F1F1F1F1F1F1F1F1F1F1F1F1F1FA4
:103E2E001F1F1F1F1F1F1F1F1F1F1F1F1E1E1E1E98
:103E3E001E1E1E1E1E1E1E1E1E1E1E1E1E1E1E1E94
:103E4E001E1E1E1E1E1E1E1E1E1E1E1E1E1E1E1E84
:103E5E001E1E1D1D1D1D1D1D1D1D1D1D1D1D1D1D82
:103E6E001D1D1D1D1D1D1D1D1D1D1D1D1D1D1D1D74
:103E7E001D1D1D1D1D1D1D1D1C1C1C1C1C1C1C1C6C
:103E8E001C1C1C1C1C1C1C1C1C1C1C1C1C1C1C1C64
:103E9E001C1C1C1C1C1C1C1C1C1C1C1C1C1C1C1B55
:103EAE001B1B1B1B1B1B1B1B1B1B1B1B1B1B1B1B54
:103EBE001B1B1B1B1B1B1B1B1B1B1B1B1B1B1B1B44
:103ECE001B1B1B1B1B1B1A1A1A1A1A1A1A1A1A1A3E
:103EDE001A1A1A1A1A1A1A1A1A1A1A1A1A1A1A1A34
:103EEE001A1A1A1A1A1A1A1A1A1A1A1A1A19191927
:103EFE001919191919191919191919191919191924
:103F0E001919191919191919191919191919191913
:103F1E00191919191818181818181818181818180F
:103F2E001818181818181818181818181818181803
:103F3E0018181818181818181818181817171717F7
:103F4E0017171717171717171717171717171717F3
:103F5E0017171717171717171717171717171717E3
:103F6E0017171717161616161616161616161616DF
:103F7E0016161616161616161616161616161616D3
:103F8E0016161616161616161616161615151515C7
:103F9E0015151515151515151515151515151515C3
:103FAE0015151515151515151515151515151515B3
:103FBE0015151515151414141414141414141414AE
:103FCE0014141414141414141414141414141414A3
:103FDE001414141414141414141414141413131396
:103FEE001313131313131313131313131313131393
:103FFE001313131313131313131313131313131383
:10400E00131313131313121212121212121212127C
:10401E001212121212121212121212121212121272
:10402E001212121212121212121212121212111164
:10403E001111111111111111111111111111111162
:10404E001111111111111111111111111111111152
:10405E00111111111111111010101010101010104B
:10406E001010101010101010101010101010101042
:10407E001010101010101010101010101010101032
:10408E000F0F0F0F0F0F0F0F0F0F0F0F0F0F0F0F32
:10409E000F0F0F0F0F0F0F0F0F0F0F0F0F0F0F0F22
:1040AE000F0F0F0F0F0F0F0F0E0E0E0E0E0E0E0E1A
:1040BE000E0E0E0E0E0E0E0E0E0E0E0E0E0E0E0E12
:1040CE000E0E0E0E0E0E0E0E0E0E0E0E0E0E0E0E02
:1040DE000E0D0D0D0D0D0D0D0D0D0D0D0D0D0D0D01
:1040EE000D0D0D0D0D0D0D0D0D0D0D0D0D0D0D0DF2
:1040FE000D0D0D0D0D0D0D0D0D0C0C0C0C0C0C0CE9
:10410E000C0C0C0C0C0C0C0C0C0C0C0C0C0C0C0CE1
:10411E000C0C0C0C0C0C0C0C0C0C0C0C0C0C0C0CD1
:10412E000C0C0B0B0B0B0B0B0B0B0B0B0B0B0B0BCF
:10413E000B0B0B0B0B0B0B0B0B0B0B0B0B0B0B0BC1
:10414E000B0B0B0B0B0B0B0B0B0B0A0A0A0A0A0AB7
:10415E000A0A0A0A0A0A0A0A0A0A0A0A0A0A0A0AB1
:10416E000A0A0A0A0A0A0A0A0A0A0A0A0A0A0A0AA1
:10417E000A0A09090909090909090909090909099F
:10418E000909090909090909090909090909090991
:10419E000909090909090909090908080808080887
:1041AE000808080808080808080808080808080881
:1041BE000808080808080808080808080808080871
:1041CE000807070707070707070707070707070770
:1041DE000707070707070707070707070707070761
:1041EE000707070707070707060606060606060659
:1041FE000606060606060606060606060606060651
:10420E000606060606060606060606060606060541
:10421E000505050505050505050505050505050540
:10422E000505050505050505050505050505050530
:10423E00050505050505040404040404040404042A
:10424E000404040404040404040404040404040420
:10425E000404040404040404040404040303030314
:10426E000303030303030303030303030303030310
:10427E000303030303030303030303030303030300
:10428E0003020202020202020202020202020202FF
:10429E0002020202020202020202020202020202F0
:1042AE0002020202020202010101010101010101E9
:1042BE0001010101010101010101010101010101E0
:1042CE0001010101010101010101010000000000D5
:1042DE0000000000000000000000000000000000D0
:1042EE00000000000000000000000000000000FFC1
:1042FE00FFFFFFFFFFFFFFFFFFFFFFFFFFFFFFFFC0
:10430E00FFFFFFFFFFFFFFFFFFFFFFFFFFFFFFFFAF
:10431E00FFFFFFFEFEFEFEFEFEFEFEFEFEFEFEFEAC
:10432E00FEFEFEFEFEFEFEFEFEFEFEFEFEFEFEFE9F
:10433E00FEFEFEFEFEFEFDFDFDFDFDFDFDFDFDFD99
:10434E00FDFDFDFDFDFDFDFDFDFDFDFDFDFDFDFD8F
:10435E00FDFDFDFDFDFDFDFDFCFCFCFCFCFCFCFC87
:10436E00FCFCFCFCFCFCFCFCFCFCFCFCFCFCFCFC7F
:10437E00FCFCFCFCFCFCFCFCFCFCFBFBFBFBFBFB75
:10438E00FBFBFBFBFBFBFBFBFBFBFBFBFBFBFBFB6F
:10439E00FBFBFBFBFBFBFBFBFBFBFBFAFAFAFAFA64
:1043AE00FAFAFAFAFAFAFAFAFAFAFAFAFAFAFAFA5F
:1043BE00FAFAFAFAFAFAFAFAFAFAFAFAF9F9F9F953
:1043CE00F9F9F9F9F9F9F9F9F9F9F9F9F9F9F9F94F
:1043DE00F9F9F9F9F9F9F9F9F9F9F9F9F8F8F8F843
:1043EE00F8F8F8F8F8F8F8F8F8F8F8F8F8F8F8F83F
:1043FE00F8F8F8F8F8F8F8F8F8F8F8F7F7F7F7F734
:10440E00F7F7F7F7F7F7F7F7F7F7F7F7F7F7F7F72E
:10441E00F7F7F7F7F7F7F7F7F7F6F6F6F6F6F6F625
:10442E00F6F6F6F6F6F6F6F6F6F6F6F6F6F6F6F61E
:10443E00F6F6F6F6F6F6F6F5F5F5F5F5F5F5F5F517
:10444E00F5F5F5F5F5F5F5F5F5F5F5F5F5F5F5F50E
:10445E00F5F5F5F5F4F4F4F4F4F4F4F4F4F4F4F40A
:10446E00F4F4F4F4F4F4F4F4F4F4F4F4F4F4F4F4FE
:10447E00F3F3F3F3F3F3F3F3F3F3F3F3F3F3F3F3FE
:10448E00F3F3F3F3F3F3F3F3F3F3F3F3F2F2F2F2F2
:10449E00F2F2F2F2F2F2F2F2F2F2F2F2F2F2F2F2EE
:1044AE00F2F2F2F2F2F2F1F1F1F1F1F1F1F1F1F1E8
:1044BE00F1F1F1F1F1F1F1F1F1F1F1F1F1F1F1F1DE
:1044CE00F0F0F0F0F0F0F0F0F0F0F0F0F0F0F0F0DE
:1044DE00F0F0F0F0F0F0F0F0F0F0EFEFEFEFEFEFD4
:1044EE00EFEFEFEFEFEFEFEFEFEFEFEFEFEFEFEFCE
:1044FE00EFEFEEEEEEEEEEEEEEEEEEEEEEEEEEEECC
:10450E00EEEEEEEEEEEEEEEEEEEEEDEDEDEDEDEDC3
:10451E00EDEDEDEDEDEDEDEDEDEDEDEDEDEDEDEDBD
:10452E00EDECECECECECECECECECECECECECECECBC
:10453E00ECECECECECECECEBEBEBEBEBEBEBEBEBB6
:10454E00EBEBEBEBEBEBEBEBEBEBEBEBEBEAEAEAB0
:10455E00EAEAEAEAEAEAEAEAEAEAEAEAEAEAEAEAAD
:10456E00EAEAE9E9E9E9E9E9E9E9E9E9E9E9E9E9AB
:10457E00E9E9E9E9E9E9E8E8E8E8E8E8E8E8E8E8A7
:10458E00E8E8E8E8E8E8E8E8E8E7E7E7E7E7E7E7A4
:10459E00E7E7E7E7E7E7E7E7E7E7E7E7E6E6E6E6A1
:1045AE00E6E6E6E6E6E6E6E6E6E6E6E6E6E5E5E5A0
:1045BE00E5E5E5E5E5E5E5E5E5E5E5E5E5E5E5E49E
:1045CE00E4E4E4E4E4E4E4E4E4E4E4E4E4E4E4E39E
:1045DE00E3E3E3E3E3E3E3E3E3E3E3E3E3E3E3E29E
:1045EE00E2E2E2E2E2E2E2E2E2E2E2E2E2E2E1E19F
:1045FE00E1E1E1E1E1E1E1E1E1E1E1E1E1E0E0E0A0
:10460E00E0E0E0E0E0E0E0E0E0E0E0DFDFDFDFDFA1
:10461E00DFDFDFDFDFDFDFDFDEDEDEDEDEDEDEDEA4
:10462E00DEDEDEDEDEDDDDDDDDDDDDDDDDDDDDDDA7
:10463E00DDDDDCDCDCDCDCDCDCDCDCDCDCDBDBDBAD
:10464E00DBDBDBDBDBDBDBDBDADADADADADADADAB4
:10465E00DADADAD9D9D9D9D9D9D9D9D9D9D8D8D8BC
:10466E00D8D8D8D8D8D8D8D7D7D7D7D7D7D7D7D7C5
:10467E00D6D6D6D6D6D6D6D6D6D5D5D5D5D5D5D5D3
:10468E00D5D4D4D4D4D4D4D4D4D3D3D3D3D3D3D3E2
:10469E00D2D2D2D2D2D2D2D1D1D1D1D1D1D1D0D0F7
:1046AE00D0D0D0D0CFCFCFCFCFCFCECECECECECE0E
:1046BE00CDCDCDCDCDCCCCCCCCCCCBCBCBCBCBCA2E
:1046CE00CACACACAC9C9C9C9C8C8C8C8C7C7C7C655
:1046DE00C6C6C6C5C5C5C4C4C4C3C3C3C2C2C2C18F
:1046EE00C1C0C0C0BFBFBEBEBDBDBCBCBBBABAB9E7
:1046FE00B8B8B7B6B5B4B3B2B0AFADABA9A6A29CBD
:10470E003DEC2CF0000EDEEC2CF0D1B491EF23F04A
:10471E0095EF23F03F6A3F2A96EF23F03F6AD1BA16
:10472E009BEF23F09EEF23F0010E9FEF23F0000E80
:10473E00F80D6100CCF340F5D1B8A8EF23F0ABEF44
:10474E0023F0010EACEF23F0000EFC0D6100CCF354
:10475E0041F5D1B6B5EF23F0B8EF23F0010EB9EF66
:10476E0023F0000EFE0DF35041244024426E3F50C4
:10477E00425C100F5C6E000E5A6E170E5A64CAEF32
:10478E0023F0CCEF23F0CEEF23F0ADEF24F05C500E
:10479E003F6E406AD8903F364036D8903F3640360E
:1047AE005C0E3F24D96E050E4020DA6E610078F360
:1047BE0041F5610078F342F5610078F343F561004D
:1047CE0078F344F55AC545F5010E466E000E476E58
:1047DE00452AF5EF23F0D89046364736452EF2EFB0
:1047EE0023F046C548F547C549F5000E49BEFF0EF4
:1047FE004A6E4B6E415048144C6E425049144D6EE9
:10480E0043504A144E6E44504B144F6E4C504D1044
:10481E004E104F10D8A416EF24F019EF24F0010E0D
:10482E001AEF24F0000E526E5250D8A421EF24F04D
:10483E0023EF24F04EEF24F0840E5A24D96EDA6A58
:10484E00050EDA22DF508CEC2CF064EC2CF0000913
:10485E00D8B434EF24F036EF24F02CEF24F06FECC4
:10486E002CF003C550F504C551F550C503F551C5DF
:10487E0004F584EC2CF03F6EAE0E5A24D96EDA6A33
:10488E00050EDA226100FCF4DFF456EF24F0AE0ED2
:10489E005A24D96EDA6A050EDA220F0EDF6E5A2A04
:1048AE00C4EF23F0060E48EC2AF0C3EF24F0000EFE
:1048BE0017EC2CF0E806D8A467EF24F069EF24F08B
:1048CE00C3EF24F0AE0E116E050E126E5CC513F51D
:1048DE000FEC27F021EE53F1060EEBC4DBF4E806E5
:1048EE00FCE2530E196E050E1A6E000EFEEC29F048
:1048FE00000E17EC2CF00009D8B488EF24F08AEFE4
:10490E0024F07FEF24F0AE0E116E050E126E5CC514
:10491E0013F5F5EC25F021EE53F1060EEBC4DBF4A6
:10492E00E806FCE2530E196E050E1A6E000EFEEC32
:10493E0029F0000E17EC2CF00009D8B4A9EF24F0E2
:10494E00ABEF24F0A0EF24F0C3EF24F0D9EC2CF061
:10495E003F6E406A4050000AD8B4B8EF24F0C3EF5F
:10496E0024F03F50040AD8B459EF24F0020AD8B408
:10497E005EEF24F0C3EF24F0030E406E8A0E3F6EFE
:10498E00560EE82EFED73F2EFCD7402EFAD7C2EF9A
:10499E0023F00DEF00F0610040F4D9F4610044F40F
:1049AE00DAF4610078F315F5610078F316F561001D
:1049BE0078F317F5610078F318F520EE04F0105037
:1049CE00D9261150DA22DFA0EFEF24F0F1EF24F018
:1049DE002BEF25F020EE01F00E50D9260F50DA22E3
:1049EE001538E842F80BF80BDF6E050E126ED890F4
:1049FE001832173216321532122EFEEF24F020EE38
:104A0E0002F00E50D9260F50DA22610054F4DFF472
:104A1E0016C515F517C516F518C517F5186A20EE43
:104A2E0003F00E50D9260F50DA2215501F0BDF6EF1
:104A3E00050E126ED8901832173216321532122E0B
:104A4E0021EF25F043EF25F020EE03F00E50D9268E
:104A5E000F50DA22000EDF6E10EE02F00E50E1263D
:104A6E000F50E222DFC4E7F420EE01F00E50D926FB
:104A7E000F50DA22E7C4DFF4610038F4D9F4610094
:104A8E003CF4DAF4610054F4DFF416C515F517C5DD
:104A9E0016F518C517F5186A15C512F5070E121674
:104AAE0020EE01F00E50D9260F50DA221250DF12EE
:104ABE0020EE04F01050D9261150DA22DF30E83201
:104ACE000F0B146E20EE04F01050D9261150DA227E
:104ADE00DFB074EF25F078EF25F0126A122A79EF25
:104AEE0025F0126A1238F00B141220EE04F010505A
:104AFE00D9261150DA22DFB287EF25F08BEF25F0A1
:104B0E00200E126E8CEF25F0126A1250141220EE47
:104B1E0004F01050D9261150DA22DFBE99EF25F09D
:104B2E009DEF25F0400E126E9EEF25F0126A125088
:104B3E00141220EE04F01050D9261150DA22DFBCE8
:104B4E00ABEF25F0AFEF25F0800E126EB0EF25F033
:104B5E00126A1250141220EE04F00E50D9260F5085
:104B6E00DA22610050F4DFF420EE04F01050D92662
:104B7E001150DA22DFB2C6EF25F0C8EF25F0F4EFC0
:104B8E0025F0080E0E24036E000E0F20046E20EE8C
:104B9E0005F01050D9261150DA22610078F305F590
:104BAE00610074F306F520EE04F01050D926115072
:104BBE00DA22DF30E8320F0B126E136A010E122466
:104BCE00F66E370E1320F76EF86A000EF822080004
:104BDE00F550076E086A3CEC2BF012007F0E346E17
:104BEE00000E2E6E800E356E000E2F6E000E306E85
:104BFE00000E296E000E2A6E000E2B6E000E2C6E0D
:104C0E00000E376E170E37640FEF26F011EF26F0F9
:104C1E0013EF26F0ACEF26F01350186E196AD890E9
:104C2E0018361936D890183619365C0E1824D96EE7
:104C3E00050E1920DA6E610078F31AF5610078F32B
:104C4E001BF5610078F31CF5610078F31DF537C58F
:104C5E001EF5010E1F6E000E206E1E2A3AEF26F074
:104C6E00D8901F3620361E2E37EF26F01FC521F5A1
:104C7E0020C522F5000E22BEFF0E236E246E1A50A2
:104C8E002114256E1B502214266E1C502314276EE1
:104C9E001D502414286E2550261027102810D8A435
:104CAE005BEF26F05EEF26F0010E5FEF26F0000EB2
:104CBE00316E3150D8A466EF26F068EF26F0A3EFE0
:104CCE0026F037501124D96E000E1220DA6EDF5006
:104CDE00366E3650800A186E3450800A185CD8B082
:104CEE007BEF26F07DEF26F081EF26F036C534F50A
:104CFE0037C52EF53550800A186E3650800A185C6E
:104D0E00D8B08CEF26F08EEF26F092EF26F036C557
:104D1E0035F537C52FF53650186E000E18BEFF0E3E
:104D2E00196E1A6E1B6E1850292619502A221A5007
:104D3E002B221B502C22302A372A170E3764AAEF4B
:104D4E0026F0ACEF26F013EF26F029C503F52AC5A1
:104D5E0004F52BC505F52CC506F53050076E086A0F
:104D6E00096A0A6AAFEC28F01350500D6100CCF3BB
:104D7E0018F56100D0F319F55B501824326E000E51
:104D8E001920336E5B501124D96E000E1220DA6E8C
:104D9E00DF502D6E33500501C66F32C5C7F52DC5D8
:104DAE00C8F5180EC96F34C5CAF535C5CBF52FC574
:104DBE00CCF52EC5CDF5800E1324386E396AF30E60
:104DCE0039223A6A380E3A223B6A180E3B223C9C34
:104DDE003C9E3C50C30B20093C6E3C923C80C60E60
:104DEE003D6E050E3E6E5B2A170E5B6401EF27F0DB
:104DFE0003EF27F005EF27F0000E5B6E21EE38F182
:104E0E0001EE11F1060EDBC4EBF4E806FCE2120033
:104E1E007F0E326E000E2E6E800E336E000E2F6ED3
:104E2E00000E306E000E296E000E2A6E000E2B6ED6
:104E3E00000E2C6E000E356E170E356429EF27F01E
:104E4E002BEF27F02DEF27F0C6EF27F01350186E3B
:104E5E00196AD89018361936D890183619365C0E4D
:104E6E001824D96E050E1920DA6E610078F31AF542
:104E7E00610078F31BF5610078F31CF5610078F39F
:104E8E001DF535C51EF5010E1F6E000E206E1E2A75
:104E9E0054EF27F0D8901F3620361E2E51EF27F0F4
:104EAE001FC521F520C522F5000E22BEFF0E236E72
:104EBE00246E1A502114256E1B502214266E1C507F
:104ECE002314276E1D502414286E255026102710EB
:104EDE002810D8A475EF27F078EF27F0010E79EFA0
:104EEE0027F0000E316E3150D8A480EF27F082EFFC
:104EFE0027F0BDEF27F035501124D96E000E122089
:104F0E00DA6EDF50346E3450800A186E3250800ADA
:104F1E00185CD8B095EF27F097EF27F09BEF27F0AE
:104F2E0034C532F535C52EF53350800A186E34501F
:104F3E00800A185CD8B0A6EF27F0A8EF27F0ACEFE8
:104F4E0027F034C533F535C52FF53450186E000EE5
:104F5E0018BEFF0E196E1A6E1B6E185029261950A8
:104F6E002A221A502B221B502C22302A352A170E99
:104F7E003564C4EF27F0C6EF27F02DEF27F029C5D3
:104F8E0003F52AC504F52BC505F52CC506F53050DD
:104F9E00076E086A096A0A6AAFEC28F003502D6E94
:104FAE0013040501C66F32C5C7F533C5C8F52DC547
:104FBE00C9F5180ECA6F2FC5CBF52EC5CCF5C60E8A
:104FCE00036E050E046E070E056EE9EC2BF0410F15
:104FDE000501CD6F800E1324366E376AF30E37221D
:104FEE00386A390E3822396A180E39223A9C3A9E9E
:104FFE003A50C30B20093A6E3A923A80C60E3B6E77
:10500E00050E3C6E21EE36F101EE11F1060EDBC4FB
:10501E00EBF4E806FCE2120001011DAF19EF28F0D7
:10502E001BEF28F02BEF28F002D829EF28F005000F
:10503E00FA6E0501AB51FD6EAC51FE6EAD51FF6EB9
:10504E00FA50120001011D9F1DAD30EF28F032EF16
:10505E0028F042EF28F002D840EF28F00500FA6E53
:10506E000501A851FD6EA951FE6EAA51FF6EFA50B0
:10507E00120001011D9D1DAB47EF28F049EF28F0EE
:10508E0059EF28F002D857EF28F00500FA6E050107
:10509E00A551FD6EA651FE6EA751FF6EFA5012007D
:1050AE0001011D9B1CA75EEF28F060EF28F070EF4A
:1050BE0028F002D86EEF28F00500FA6E0501A25115
:1050CE00FD6EA351FE6EA451FF6EFA501200010147
:1050DE001C971DA975EF28F077EF28F087EF28F0C1
:1050EE0002D885EF28F00500FA6E05019F51FD6E7E
:1050FE00A051FE6EA151FF6EFA50120001011D99D2
:10510E001DA58CEF28F08EEF28F0ADEF28F002D819
:10511E009CEF28F00500FA6E05019C51FD6E9D5125
:10512E00FE6E9E51FF6EFA501200010154A9A2EFBD
:10513E0028F0A4EF28F0A5EF28F0549960A9AAEF63
:10514E0028F0ACEF28F0ADEF28F06099AE9C12007D
:10515E00000E0C6E0ABEB8EF28F0B6EF28F0C2EFC4
:10516E0028F00A1E091E081E076C000E08220922CE
:10517E000A22010E0C6E06BEC9EF28F0C7EF28F00A
:10518E00D3EF28F0061E051E041E036C000E04222B
:10519E0005220622010E0C1A000E0D6E000E0E6E6A
:1051AE00000E0F6E000E106E0750081009100A1038
:1051BE00D8B4E4EF28F0E6EF28F01CEF29F0010E4A
:1051CE000B6EF0EF28F0D8900736083609360A36FF
:1051DE000B2A0AAEF5EF28F0F7EF28F0EAEF28F0E9
:1051EE00D8900D360E360F3610360750035C085029
:1051FE000458095005580A500658D8A009EF29F04E
:10520E000BEF29F014EF29F00750035E0850045AF3
:10521E000950055A0A50065A0D80D8900A320932A2
:10522E00083207320B2EF7EF28F00C50D8B422EFCD
:10523E0029F024EF29F02CEF29F0101E0F1E0E1E60
:10524E000D6C000E0E220F2210220DC503F50EC599
:10525E0004F50FC505F510C506F51200096E000E12
:10526E000A6E20EE04F00450D9260550DA22DF50E3
:10527E000B6E0BAE45EF29F047EF29F052EF29F0F8
:10528E00D9EC2CF0060AD8A44FEF29F051EF29F0F3
:10529E0052EF29F00A820B30E8320F0B066E080E21
:1052AE0006645CEF29F05EEF29F070EF29F00BAC8D
:1052BE0063EF29F065EF29F06FEF29F0D9EC2CF0B0
:1052CE00060AD8A46DEF29F06FEF29F070EF29F0E0
:1052DE000A80090EF66E370EF76E000EF86E080095
:1052EE006100D4F306F50B30E8320F0B076E086A37
:1052FE00010E0724F66E370E0820F76EF86A000EC0
:10530E00F8220800F550065CD8B090EF29F092EF25
:10531E0029F093EF29F00A80095058EC2CF000097F
:10532E00D8A49CEF29F09EEF29F0A0EF29F0030EF0
:10533E000A120A501200000E0301F96F000EFA6FE6
:10534E00000ED86F000EFB6F000ED96F000EDA6FD5
:10535E00000EDB6F000EDC6F000EDF6F000EE06FD5
:10536E00000EE36F000EE46F000EE56F000EE66FA9
:10537E00000EE76F000EEA6F000EEB6F000EEC6F83
:10538E00000EEE6F000EEF6F000EF06F000EF16F5D
:10539E00000EF26F000EF36F000EF46F100EF56F2D
:1053AE00000EF66F000EF76F000EF86F000EFC6F1A
:1053BE00AF94AF96B090000E036E000E046E000E0A
:1053CE00056ECCEC2CF0000E036E000E046E000E7B
:1053DE00056EBEEC2CF0000E036E000E046E000E79
:1053EE00056EC5EC2CF0840E0301F36F12001E6ED9
:1053FE001E508FEC2BF00009D8B408EF2AF00AEFFC
:10540E002AF047EF2AF019C504F51AC505F51E5006
:10541E0035EC29F01B6E1B50D8A418EF2AF01AEFAA
:10542E002AF047EF2AF01E500C0D580EF324D96EB9
:10543E00010EF420DA6E610078F31CF5610074F34E
:10544E001DF51C501D10D8B42FEF2AF031EF2AF0A5
:10545E0047EF2AF01CC50EF51DC50FF519C510F541
:10546E001AC511F5D2EC24F01E500C0D510EF3247A
:10547E00D96E010EF420DA6E030EDF1247EF2AF01A
:10548E001200056E000E046ED9EC2CF0036E040EA5
:10549E000318D8B455EF2AF057EF2AF068EF2AF028
:1054AE000504D8B45DEF2AF05FEF2AF068EF2AF01A
:1054BE00040E0518D8A466EF2AF068EF2AF088EFDC
:1054CE002AF0010103510518F80B0518036F7BEF45
:1054DE002AF01DA975EF2AF077EF2AF07BEF2AF05C
:1054EE00020E046E8AEF2AF00239E832070B051815
:1054FE00D8A484EF2AF086EF2AF070EF2AF08AEF14
:10550E002AF0010E046E04501200000EC26E000E40
:10551E00C16E000EBE6E000EBF6E000EC06E070E88
:10552E00CA6EC668C768C868FD0EC96EC00E040193
:10553E00186F10690869070E206F00693C0E196F0D
:10554E00000E216F000E096F000E016F000E116F1D
:10555E00000E226F000E026F000E0A6F000E126F09
:10556E00000E1A6F03690B6913691B69070E236F0F
:10557E0004690C6914691C690F0E246F180E020160
:10558E003D6F460E1A6F1200D00E036E590E046E4A
:10559E00000E056EA9EC2CF0D20E036E590E046EA1
:1055AE00000E056EB0EC2CF0D40E036E590E046E88
:1055BE00000E056EB7EC2CF0CE0E036E590E046E77
:1055CE00000E056EA2EC2CF0CC0E036E590E046E7E
:1055DE00000E056E9BEC2CF0CA0E036E590E046E77
:1055EE00000E056E94EC2CF0AE9C000E01011C6FAB
:1055FE00000E1D6F080E1E6FFC0E1F6F9E8C12008C
:10560E000E0EF66E370EF76E000EF86E01EED7F137
:10561E0014EE00F00900F5C4EEF4E550E150FAE1A5
:10562E00E250F8E15C0EF66E570EF76E000EF86E55
:10563E0001EE60F110EE3CF00900F5C4EEF4E55019
:10564E00E150FAE101EE9CF1320EEE6AE806FDE160
:10565E005D6A5C6A5B6A0401080E5D6F000E5E6F28
:10566E00000E5F6F000187EF23F005C50BF506C531
:10567E000CF503C509F504C50AF55BEF2BF06100C7
:10568E002CF4D9F4610030F4DAF4DF500D6E0B4ACD
:10569E000C2A610024F4D9F4610028F4DAF46100D4
:1056AE0034F4DFF4094A0A2A0706D8A008060728A8
:1056BE0006E10828D8A466EF2BF068EF2BF046EF32
:1056CE002BF012000101018F040E48EC2AF00009A4
:1056DE00D8A474EF2BF076EF2BF08EEF2BF0000E9C
:1056EE0001014C6F380E4D6F000E4E6F000E4F6F56
:1056FE00600E006F970E016F100E026F7AEC2CF099
:10570E002BEC2CF0CBEC2AF0060E48EC2AF0120013
:10571E00046E000E036E040E046098EF2BF09AEFE9
:10572E002BF0ACEF2BF004500C0D500EF324D96E71
:10573E00010EF420DA6E0101DFAEA8EF2BF0AAEF16
:10574E002BF0ACEF2BF0010E036E03501200000095
:10575E000000080000000000000000000000000033
:10576E00000000000000000000000000000000002B
:10577E000000161700011415020312130405101170
:10578E0020211E1F08090C0D0A0B6100E8F301F51C
:10579E006100ECF302F59EACD7EF2BF0D9EF2BF0B6
:1057AE00E2EF2BF0AEACDEEF2BF0E0EF2BF0E2EF02
:1057BE002BF013EC28F0610008F4FBF4610004F404
:1057CE00FAF41100000E066E000E076EF8EF2BF0C5
:1057DE0007500324D96E000E0420DA6EDF50062621
:1057EE00072A0550075CD8A0FFEF2BF001EF2CF035
:1057FE00EFEF2BF006501200000E0001606F000E4E
:10580E00616F000E626F000E636F000E646F000E0C
:10581E00656F000E666F000E676F000E686F1200E8
:10582E00066E000E056E06508FEC2BF00009D8B4F4
:10583E0023EF2CF025EF2CF029EF2CF0065058EC2E
:10584E002CF0056E05501200100E0101506F040E63
:10585E00516F600E526F010E536F900E5C6F040EFF
:10586E005D6F600E5E6F050E5F6F1200E3EC2CF045
:10587E0003EC2CF08CEC2AF0A2EC29F04CEC2CF082
:10588E00D3EC2CF069EC2BF01200700E0001AD6F12
:10589E00000EAF6F000EB36F040EB16F000EB06F3F
:1058AE001200036E03500C0D540EF324D96E010E2C
:1058BE00F420DA6EDF50010B12000301F3A16AEF40
:1058CE002CF06DEF2CF0010E6EEF2CF0000E12008E
:1058DE000301EB51066E056AEA510524036E000EB4
:1058EE000620046E1200090E0101046F090E056FE9
:1058FE001C0E066F000E076F1200D70E0324D96E12
:10590E00050E0420DA6EDF501200036E61000CF4F7
:10591E00ECF30301F38FF381120003C59CF504C56C
:10592E009DF505C59EF5120003C59FF504C5A0F5AE
:10593E0005C5A1F5120003C5A2F504C5A3F505C55D
:10594E00A4F5120003C5ABF504C5ACF505C5ADF560
:10595E00120003C5A8F504C5A9F505C5AAF51200E0
:10596E0003C5A5F504C5A6F505C5A7F5120003C523
:10597E00D1F504C5D2F505C5D3F5120003C5CEF594
:10598E0004C5CFF505C5D0F5120003C5D4F504C581
:10599E00D5F505C5D6F51200000E00013A6F900E32
:1059AE00396F120001010239E832070B1200036E43
:1059BE0061000CF4FBF31200D69A120012001200D2
:0859CE00120012001200120089
:020000040030CA
:10000000FAEEF7FF9FFFFFFFFFFFFFFFFFFFFFFF7E
:03001000FFFFFFF0
:08001700FFFFFFFFFFFFFFFFE9
:00000001FF
